{"contracts/Will.sol":{"Will":{"abi":[{"inputs":[{"internalType":"address","name":"_will_owner","type":"address"},{"internalType":"uint256[]","name":"_amounts","type":"uint256[]"},{"internalType":"address[]","name":"_beneficiaries","type":"address[]"},{"internalType":"uint256","name":"_time_of_will_creation","type":"uint256"}],"stateMutability":"nonpayable","type":"constructor"},{"inputs":[{"internalType":"address","name":"","type":"address"}],"name":"amount_to_give_beneficiary","outputs":[{"internalType":"uint256","name":"","type":"uint256"}],"stateMutability":"view","type":"function"},{"inputs":[],"name":"cancelWill","outputs":[],"stateMutability":"nonpayable","type":"function"},{"inputs":[],"name":"claimTokens","outputs":[],"stateMutability":"nonpayable","type":"function"},{"inputs":[],"name":"getBalance","outputs":[{"internalType":"uint256","name":"","type":"uint256"}],"stateMutability":"view","type":"function"},{"inputs":[],"name":"resetExpiry","outputs":[],"stateMutability":"nonpayable","type":"function"},{"inputs":[],"name":"time_of_will_creation","outputs":[{"internalType":"uint256","name":"","type":"uint256"}],"stateMutability":"view","type":"function"},{"inputs":[],"name":"will_owner","outputs":[{"internalType":"address","name":"","type":"address"}],"stateMutability":"view","type":"function"},{"stateMutability":"payable","type":"receive"}],"evm":{"bytecode":{"linkReferences":{},"object":"60806040523480156200001157600080fd5b5060405162000de438038062000de4833981810160405281019062000037919062000429565b836000806101000a81548173ffffffffffffffffffffffffffffffffffffffff021916908373ffffffffffffffffffffffffffffffffffffffff1602179055508060028190555060005b83518110156200011f57838181518110620000a157620000a0620004d9565b5b602002602001015160016000858481518110620000c357620000c2620004d9565b5b602002602001015173ffffffffffffffffffffffffffffffffffffffff1673ffffffffffffffffffffffffffffffffffffffff168152602001908152602001600020819055508080620001169062000537565b91505062000081565b505050505062000584565b6000604051905090565b600080fd5b600080fd5b600073ffffffffffffffffffffffffffffffffffffffff82169050919050565b60006200016b826200013e565b9050919050565b6200017d816200015e565b81146200018957600080fd5b50565b6000815190506200019d8162000172565b92915050565b600080fd5b6000601f19601f8301169050919050565b7f4e487b7100000000000000000000000000000000000000000000000000000000600052604160045260246000fd5b620001f382620001a8565b810181811067ffffffffffffffff82111715620002155762000214620001b9565b5b80604052505050565b60006200022a6200012a565b9050620002388282620001e8565b919050565b600067ffffffffffffffff8211156200025b576200025a620001b9565b5b602082029050602081019050919050565b600080fd5b6000819050919050565b620002868162000271565b81146200029257600080fd5b50565b600081519050620002a6816200027b565b92915050565b6000620002c3620002bd846200023d565b6200021e565b90508083825260208201905060208402830185811115620002e957620002e86200026c565b5b835b8181101562000316578062000301888262000295565b845260208401935050602081019050620002eb565b5050509392505050565b600082601f830112620003385762000337620001a3565b5b81516200034a848260208601620002ac565b91505092915050565b600067ffffffffffffffff821115620003715762000370620001b9565b5b602082029050602081019050919050565b600062000399620003938462000353565b6200021e565b90508083825260208201905060208402830185811115620003bf57620003be6200026c565b5b835b81811015620003ec5780620003d788826200018c565b845260208401935050602081019050620003c1565b5050509392505050565b600082601f8301126200040e576200040d620001a3565b5b81516200042084826020860162000382565b91505092915050565b6000806000806080858703121562000446576200044562000134565b5b600062000456878288016200018c565b945050602085015167ffffffffffffffff8111156200047a576200047962000139565b5b620004888782880162000320565b935050604085015167ffffffffffffffff811115620004ac57620004ab62000139565b5b620004ba87828801620003f6565b9250506060620004cd8782880162000295565b91505092959194509250565b7f4e487b7100000000000000000000000000000000000000000000000000000000600052603260045260246000fd5b7f4e487b7100000000000000000000000000000000000000000000000000000000600052601160045260246000fd5b6000620005448262000271565b91507fffffffffffffffffffffffffffffffffffffffffffffffffffffffffffffffff820362000579576200057862000508565b5b600182019050919050565b61085080620005946000396000f3fe6080604052600436106100745760003560e01c8063ac5c91291161004e578063ac5c9129146100d9578063c6d6ade114610116578063d4ac315614610141578063d558204e1461016c5761007b565b806312065fe0146100805780633b46150a146100ab57806348c54b9d146100c25761007b565b3661007b57005b600080fd5b34801561008c57600080fd5b50610095610183565b6040516100a291906104d5565b60405180910390f35b3480156100b757600080fd5b506100c061018b565b005b3480156100ce57600080fd5b506100d7610222565b005b3480156100e557600080fd5b5061010060048036038101906100fb9190610553565b610383565b60405161010d91906104d5565b60405180910390f35b34801561012257600080fd5b5061012b61039b565b60405161013891906104d5565b60405180910390f35b34801561014d57600080fd5b506101566103a1565b604051610163919061058f565b60405180910390f35b34801561017857600080fd5b506101816103c5565b005b600047905090565b60008054906101000a900473ffffffffffffffffffffffffffffffffffffffff1673ffffffffffffffffffffffffffffffffffffffff163373ffffffffffffffffffffffffffffffffffffffff1614610219576040517f08c379a00000000000000000000000000000000000000000000000000000000081526004016102109061062d565b60405180910390fd5b42600281905550565b61012c600254610232919061067c565b4211610273576040517f08c379a000000000000000000000000000000000000000000000000000000000815260040161026a906106fc565b60405180910390fd5b6000600160003373ffffffffffffffffffffffffffffffffffffffff1673ffffffffffffffffffffffffffffffffffffffff16815260200190815260200160002054116102f5576040517f08c379a00000000000000000000000000000000000000000000000000000000081526004016102ec90610768565b60405180910390fd5b6000600160003373ffffffffffffffffffffffffffffffffffffffff1673ffffffffffffffffffffffffffffffffffffffff1681526020019081526020016000205490503373ffffffffffffffffffffffffffffffffffffffff166108fc829081150290604051600060405180830381858888f1935050505015801561037f573d6000803e3d6000fd5b5050565b60016020528060005260406000206000915090505481565b60025481565b60008054906101000a900473ffffffffffffffffffffffffffffffffffffffff1681565b60008054906101000a900473ffffffffffffffffffffffffffffffffffffffff1673ffffffffffffffffffffffffffffffffffffffff163373ffffffffffffffffffffffffffffffffffffffff1614610453576040517f08c379a000000000000000000000000000000000000000000000000000000000815260040161044a906107fa565b60405180910390fd5b60008054906101000a900473ffffffffffffffffffffffffffffffffffffffff1673ffffffffffffffffffffffffffffffffffffffff166108fc479081150290604051600060405180830381858888f193505050501580156104b9573d6000803e3d6000fd5b50565b6000819050919050565b6104cf816104bc565b82525050565b60006020820190506104ea60008301846104c6565b92915050565b600080fd5b600073ffffffffffffffffffffffffffffffffffffffff82169050919050565b6000610520826104f5565b9050919050565b61053081610515565b811461053b57600080fd5b50565b60008135905061054d81610527565b92915050565b600060208284031215610569576105686104f0565b5b60006105778482850161053e565b91505092915050565b61058981610515565b82525050565b60006020820190506105a46000830184610580565b92915050565b600082825260208201905092915050565b7f6f6e6c792077696c6c2063726561746f722063616e207265736574206578706960008201527f7279000000000000000000000000000000000000000000000000000000000000602082015250565b60006106176022836105aa565b9150610622826105bb565b604082019050919050565b600060208201905081810360008301526106468161060a565b9050919050565b7f4e487b7100000000000000000000000000000000000000000000000000000000600052601160045260246000fd5b6000610687826104bc565b9150610692836104bc565b92508282019050808211156106aa576106a961064d565b5b92915050565b7f596f752063616e6e6f7420636c61696d20746f6b656e73206e6f770000000000600082015250565b60006106e6601b836105aa565b91506106f1826106b0565b602082019050919050565b60006020820190508181036000830152610715816106d9565b9050919050565b7f596f752068617665206e6f20746f6b656e73206c65667420746f20636c61696d600082015250565b60006107526020836105aa565b915061075d8261071c565b602082019050919050565b6000602082019050818103600083015261078181610745565b9050919050565b7f596f7520617265206e697420746865206f776e6572206f66207468697320776960008201527f6c6c000000000000000000000000000000000000000000000000000000000000602082015250565b60006107e46022836105aa565b91506107ef82610788565b604082019050919050565b60006020820190508181036000830152610813816107d7565b905091905056fea2646970667358221220e2f5a78e92fccf7f6cf40a3e6ecd725737be22b14f43a93166fc60f53b4205f264736f6c63430008110033","opcodes":"PUSH1 0x80 PUSH1 0x40 MSTORE CALLVALUE DUP1 ISZERO PUSH3 0x11 JUMPI PUSH1 0x0 DUP1 REVERT JUMPDEST POP PUSH1 0x40 MLOAD PUSH3 0xDE4 CODESIZE SUB DUP1 PUSH3 0xDE4 DUP4 CODECOPY DUP2 DUP2 ADD PUSH1 0x40 MSTORE DUP2 ADD SWAP1 PUSH3 0x37 SWAP2 SWAP1 PUSH3 0x429 JUMP JUMPDEST DUP4 PUSH1 0x0 DUP1 PUSH2 0x100 EXP DUP2 SLOAD DUP2 PUSH20 0xFFFFFFFFFFFFFFFFFFFFFFFFFFFFFFFFFFFFFFFF MUL NOT AND SWAP1 DUP4 PUSH20 0xFFFFFFFFFFFFFFFFFFFFFFFFFFFFFFFFFFFFFFFF AND MUL OR SWAP1 SSTORE POP DUP1 PUSH1 0x2 DUP2 SWAP1 SSTORE POP PUSH1 0x0 JUMPDEST DUP4 MLOAD DUP2 LT ISZERO PUSH3 0x11F JUMPI DUP4 DUP2 DUP2 MLOAD DUP2 LT PUSH3 0xA1 JUMPI PUSH3 0xA0 PUSH3 0x4D9 JUMP JUMPDEST JUMPDEST PUSH1 0x20 MUL PUSH1 0x20 ADD ADD MLOAD PUSH1 0x1 PUSH1 0x0 DUP6 DUP5 DUP2 MLOAD DUP2 LT PUSH3 0xC3 JUMPI PUSH3 0xC2 PUSH3 0x4D9 JUMP JUMPDEST JUMPDEST PUSH1 0x20 MUL PUSH1 0x20 ADD ADD MLOAD PUSH20 0xFFFFFFFFFFFFFFFFFFFFFFFFFFFFFFFFFFFFFFFF AND PUSH20 0xFFFFFFFFFFFFFFFFFFFFFFFFFFFFFFFFFFFFFFFF AND DUP2 MSTORE PUSH1 0x20 ADD SWAP1 DUP2 MSTORE PUSH1 0x20 ADD PUSH1 0x0 KECCAK256 DUP2 SWAP1 SSTORE POP DUP1 DUP1 PUSH3 0x116 SWAP1 PUSH3 0x537 JUMP JUMPDEST SWAP2 POP POP PUSH3 0x81 JUMP JUMPDEST POP POP POP POP POP PUSH3 0x584 JUMP JUMPDEST PUSH1 0x0 PUSH1 0x40 MLOAD SWAP1 POP SWAP1 JUMP JUMPDEST PUSH1 0x0 DUP1 REVERT JUMPDEST PUSH1 0x0 DUP1 REVERT JUMPDEST PUSH1 0x0 PUSH20 0xFFFFFFFFFFFFFFFFFFFFFFFFFFFFFFFFFFFFFFFF DUP3 AND SWAP1 POP SWAP2 SWAP1 POP JUMP JUMPDEST PUSH1 0x0 PUSH3 0x16B DUP3 PUSH3 0x13E JUMP JUMPDEST SWAP1 POP SWAP2 SWAP1 POP JUMP JUMPDEST PUSH3 0x17D DUP2 PUSH3 0x15E JUMP JUMPDEST DUP2 EQ PUSH3 0x189 JUMPI PUSH1 0x0 DUP1 REVERT JUMPDEST POP JUMP JUMPDEST PUSH1 0x0 DUP2 MLOAD SWAP1 POP PUSH3 0x19D DUP2 PUSH3 0x172 JUMP JUMPDEST SWAP3 SWAP2 POP POP JUMP JUMPDEST PUSH1 0x0 DUP1 REVERT JUMPDEST PUSH1 0x0 PUSH1 0x1F NOT PUSH1 0x1F DUP4 ADD AND SWAP1 POP SWAP2 SWAP1 POP JUMP JUMPDEST PUSH32 0x4E487B7100000000000000000000000000000000000000000000000000000000 PUSH1 0x0 MSTORE PUSH1 0x41 PUSH1 0x4 MSTORE PUSH1 0x24 PUSH1 0x0 REVERT JUMPDEST PUSH3 0x1F3 DUP3 PUSH3 0x1A8 JUMP JUMPDEST DUP2 ADD DUP2 DUP2 LT PUSH8 0xFFFFFFFFFFFFFFFF DUP3 GT OR ISZERO PUSH3 0x215 JUMPI PUSH3 0x214 PUSH3 0x1B9 JUMP JUMPDEST JUMPDEST DUP1 PUSH1 0x40 MSTORE POP POP POP JUMP JUMPDEST PUSH1 0x0 PUSH3 0x22A PUSH3 0x12A JUMP JUMPDEST SWAP1 POP PUSH3 0x238 DUP3 DUP3 PUSH3 0x1E8 JUMP JUMPDEST SWAP2 SWAP1 POP JUMP JUMPDEST PUSH1 0x0 PUSH8 0xFFFFFFFFFFFFFFFF DUP3 GT ISZERO PUSH3 0x25B JUMPI PUSH3 0x25A PUSH3 0x1B9 JUMP JUMPDEST JUMPDEST PUSH1 0x20 DUP3 MUL SWAP1 POP PUSH1 0x20 DUP2 ADD SWAP1 POP SWAP2 SWAP1 POP JUMP JUMPDEST PUSH1 0x0 DUP1 REVERT JUMPDEST PUSH1 0x0 DUP2 SWAP1 POP SWAP2 SWAP1 POP JUMP JUMPDEST PUSH3 0x286 DUP2 PUSH3 0x271 JUMP JUMPDEST DUP2 EQ PUSH3 0x292 JUMPI PUSH1 0x0 DUP1 REVERT JUMPDEST POP JUMP JUMPDEST PUSH1 0x0 DUP2 MLOAD SWAP1 POP PUSH3 0x2A6 DUP2 PUSH3 0x27B JUMP JUMPDEST SWAP3 SWAP2 POP POP JUMP JUMPDEST PUSH1 0x0 PUSH3 0x2C3 PUSH3 0x2BD DUP5 PUSH3 0x23D JUMP JUMPDEST PUSH3 0x21E JUMP JUMPDEST SWAP1 POP DUP1 DUP4 DUP3 MSTORE PUSH1 0x20 DUP3 ADD SWAP1 POP PUSH1 0x20 DUP5 MUL DUP4 ADD DUP6 DUP2 GT ISZERO PUSH3 0x2E9 JUMPI PUSH3 0x2E8 PUSH3 0x26C JUMP JUMPDEST JUMPDEST DUP4 JUMPDEST DUP2 DUP2 LT ISZERO PUSH3 0x316 JUMPI DUP1 PUSH3 0x301 DUP9 DUP3 PUSH3 0x295 JUMP JUMPDEST DUP5 MSTORE PUSH1 0x20 DUP5 ADD SWAP4 POP POP PUSH1 0x20 DUP2 ADD SWAP1 POP PUSH3 0x2EB JUMP JUMPDEST POP POP POP SWAP4 SWAP3 POP POP POP JUMP JUMPDEST PUSH1 0x0 DUP3 PUSH1 0x1F DUP4 ADD SLT PUSH3 0x338 JUMPI PUSH3 0x337 PUSH3 0x1A3 JUMP JUMPDEST JUMPDEST DUP2 MLOAD PUSH3 0x34A DUP5 DUP3 PUSH1 0x20 DUP7 ADD PUSH3 0x2AC JUMP JUMPDEST SWAP2 POP POP SWAP3 SWAP2 POP POP JUMP JUMPDEST PUSH1 0x0 PUSH8 0xFFFFFFFFFFFFFFFF DUP3 GT ISZERO PUSH3 0x371 JUMPI PUSH3 0x370 PUSH3 0x1B9 JUMP JUMPDEST JUMPDEST PUSH1 0x20 DUP3 MUL SWAP1 POP PUSH1 0x20 DUP2 ADD SWAP1 POP SWAP2 SWAP1 POP JUMP JUMPDEST PUSH1 0x0 PUSH3 0x399 PUSH3 0x393 DUP5 PUSH3 0x353 JUMP JUMPDEST PUSH3 0x21E JUMP JUMPDEST SWAP1 POP DUP1 DUP4 DUP3 MSTORE PUSH1 0x20 DUP3 ADD SWAP1 POP PUSH1 0x20 DUP5 MUL DUP4 ADD DUP6 DUP2 GT ISZERO PUSH3 0x3BF JUMPI PUSH3 0x3BE PUSH3 0x26C JUMP JUMPDEST JUMPDEST DUP4 JUMPDEST DUP2 DUP2 LT ISZERO PUSH3 0x3EC JUMPI DUP1 PUSH3 0x3D7 DUP9 DUP3 PUSH3 0x18C JUMP JUMPDEST DUP5 MSTORE PUSH1 0x20 DUP5 ADD SWAP4 POP POP PUSH1 0x20 DUP2 ADD SWAP1 POP PUSH3 0x3C1 JUMP JUMPDEST POP POP POP SWAP4 SWAP3 POP POP POP JUMP JUMPDEST PUSH1 0x0 DUP3 PUSH1 0x1F DUP4 ADD SLT PUSH3 0x40E JUMPI PUSH3 0x40D PUSH3 0x1A3 JUMP JUMPDEST JUMPDEST DUP2 MLOAD PUSH3 0x420 DUP5 DUP3 PUSH1 0x20 DUP7 ADD PUSH3 0x382 JUMP JUMPDEST SWAP2 POP POP SWAP3 SWAP2 POP POP JUMP JUMPDEST PUSH1 0x0 DUP1 PUSH1 0x0 DUP1 PUSH1 0x80 DUP6 DUP8 SUB SLT ISZERO PUSH3 0x446 JUMPI PUSH3 0x445 PUSH3 0x134 JUMP JUMPDEST JUMPDEST PUSH1 0x0 PUSH3 0x456 DUP8 DUP3 DUP9 ADD PUSH3 0x18C JUMP JUMPDEST SWAP5 POP POP PUSH1 0x20 DUP6 ADD MLOAD PUSH8 0xFFFFFFFFFFFFFFFF DUP2 GT ISZERO PUSH3 0x47A JUMPI PUSH3 0x479 PUSH3 0x139 JUMP JUMPDEST JUMPDEST PUSH3 0x488 DUP8 DUP3 DUP9 ADD PUSH3 0x320 JUMP JUMPDEST SWAP4 POP POP PUSH1 0x40 DUP6 ADD MLOAD PUSH8 0xFFFFFFFFFFFFFFFF DUP2 GT ISZERO PUSH3 0x4AC JUMPI PUSH3 0x4AB PUSH3 0x139 JUMP JUMPDEST JUMPDEST PUSH3 0x4BA DUP8 DUP3 DUP9 ADD PUSH3 0x3F6 JUMP JUMPDEST SWAP3 POP POP PUSH1 0x60 PUSH3 0x4CD DUP8 DUP3 DUP9 ADD PUSH3 0x295 JUMP JUMPDEST SWAP2 POP POP SWAP3 SWAP6 SWAP2 SWAP5 POP SWAP3 POP JUMP JUMPDEST PUSH32 0x4E487B7100000000000000000000000000000000000000000000000000000000 PUSH1 0x0 MSTORE PUSH1 0x32 PUSH1 0x4 MSTORE PUSH1 0x24 PUSH1 0x0 REVERT JUMPDEST PUSH32 0x4E487B7100000000000000000000000000000000000000000000000000000000 PUSH1 0x0 MSTORE PUSH1 0x11 PUSH1 0x4 MSTORE PUSH1 0x24 PUSH1 0x0 REVERT JUMPDEST PUSH1 0x0 PUSH3 0x544 DUP3 PUSH3 0x271 JUMP JUMPDEST SWAP2 POP PUSH32 0xFFFFFFFFFFFFFFFFFFFFFFFFFFFFFFFFFFFFFFFFFFFFFFFFFFFFFFFFFFFFFFFF DUP3 SUB PUSH3 0x579 JUMPI PUSH3 0x578 PUSH3 0x508 JUMP JUMPDEST JUMPDEST PUSH1 0x1 DUP3 ADD SWAP1 POP SWAP2 SWAP1 POP JUMP JUMPDEST PUSH2 0x850 DUP1 PUSH3 0x594 PUSH1 0x0 CODECOPY PUSH1 0x0 RETURN INVALID PUSH1 0x80 PUSH1 0x40 MSTORE PUSH1 0x4 CALLDATASIZE LT PUSH2 0x74 JUMPI PUSH1 0x0 CALLDATALOAD PUSH1 0xE0 SHR DUP1 PUSH4 0xAC5C9129 GT PUSH2 0x4E JUMPI DUP1 PUSH4 0xAC5C9129 EQ PUSH2 0xD9 JUMPI DUP1 PUSH4 0xC6D6ADE1 EQ PUSH2 0x116 JUMPI DUP1 PUSH4 0xD4AC3156 EQ PUSH2 0x141 JUMPI DUP1 PUSH4 0xD558204E EQ PUSH2 0x16C JUMPI PUSH2 0x7B JUMP JUMPDEST DUP1 PUSH4 0x12065FE0 EQ PUSH2 0x80 JUMPI DUP1 PUSH4 0x3B46150A EQ PUSH2 0xAB JUMPI DUP1 PUSH4 0x48C54B9D EQ PUSH2 0xC2 JUMPI PUSH2 0x7B JUMP JUMPDEST CALLDATASIZE PUSH2 0x7B JUMPI STOP JUMPDEST PUSH1 0x0 DUP1 REVERT JUMPDEST CALLVALUE DUP1 ISZERO PUSH2 0x8C JUMPI PUSH1 0x0 DUP1 REVERT JUMPDEST POP PUSH2 0x95 PUSH2 0x183 JUMP JUMPDEST PUSH1 0x40 MLOAD PUSH2 0xA2 SWAP2 SWAP1 PUSH2 0x4D5 JUMP JUMPDEST PUSH1 0x40 MLOAD DUP1 SWAP2 SUB SWAP1 RETURN JUMPDEST CALLVALUE DUP1 ISZERO PUSH2 0xB7 JUMPI PUSH1 0x0 DUP1 REVERT JUMPDEST POP PUSH2 0xC0 PUSH2 0x18B JUMP JUMPDEST STOP JUMPDEST CALLVALUE DUP1 ISZERO PUSH2 0xCE JUMPI PUSH1 0x0 DUP1 REVERT JUMPDEST POP PUSH2 0xD7 PUSH2 0x222 JUMP JUMPDEST STOP JUMPDEST CALLVALUE DUP1 ISZERO PUSH2 0xE5 JUMPI PUSH1 0x0 DUP1 REVERT JUMPDEST POP PUSH2 0x100 PUSH1 0x4 DUP1 CALLDATASIZE SUB DUP2 ADD SWAP1 PUSH2 0xFB SWAP2 SWAP1 PUSH2 0x553 JUMP JUMPDEST PUSH2 0x383 JUMP JUMPDEST PUSH1 0x40 MLOAD PUSH2 0x10D SWAP2 SWAP1 PUSH2 0x4D5 JUMP JUMPDEST PUSH1 0x40 MLOAD DUP1 SWAP2 SUB SWAP1 RETURN JUMPDEST CALLVALUE DUP1 ISZERO PUSH2 0x122 JUMPI PUSH1 0x0 DUP1 REVERT JUMPDEST POP PUSH2 0x12B PUSH2 0x39B JUMP JUMPDEST PUSH1 0x40 MLOAD PUSH2 0x138 SWAP2 SWAP1 PUSH2 0x4D5 JUMP JUMPDEST PUSH1 0x40 MLOAD DUP1 SWAP2 SUB SWAP1 RETURN JUMPDEST CALLVALUE DUP1 ISZERO PUSH2 0x14D JUMPI PUSH1 0x0 DUP1 REVERT JUMPDEST POP PUSH2 0x156 PUSH2 0x3A1 JUMP JUMPDEST PUSH1 0x40 MLOAD PUSH2 0x163 SWAP2 SWAP1 PUSH2 0x58F JUMP JUMPDEST PUSH1 0x40 MLOAD DUP1 SWAP2 SUB SWAP1 RETURN JUMPDEST CALLVALUE DUP1 ISZERO PUSH2 0x178 JUMPI PUSH1 0x0 DUP1 REVERT JUMPDEST POP PUSH2 0x181 PUSH2 0x3C5 JUMP JUMPDEST STOP JUMPDEST PUSH1 0x0 SELFBALANCE SWAP1 POP SWAP1 JUMP JUMPDEST PUSH1 0x0 DUP1 SLOAD SWAP1 PUSH2 0x100 EXP SWAP1 DIV PUSH20 0xFFFFFFFFFFFFFFFFFFFFFFFFFFFFFFFFFFFFFFFF AND PUSH20 0xFFFFFFFFFFFFFFFFFFFFFFFFFFFFFFFFFFFFFFFF AND CALLER PUSH20 0xFFFFFFFFFFFFFFFFFFFFFFFFFFFFFFFFFFFFFFFF AND EQ PUSH2 0x219 JUMPI PUSH1 0x40 MLOAD PUSH32 0x8C379A000000000000000000000000000000000000000000000000000000000 DUP2 MSTORE PUSH1 0x4 ADD PUSH2 0x210 SWAP1 PUSH2 0x62D JUMP JUMPDEST PUSH1 0x40 MLOAD DUP1 SWAP2 SUB SWAP1 REVERT JUMPDEST TIMESTAMP PUSH1 0x2 DUP2 SWAP1 SSTORE POP JUMP JUMPDEST PUSH2 0x12C PUSH1 0x2 SLOAD PUSH2 0x232 SWAP2 SWAP1 PUSH2 0x67C JUMP JUMPDEST TIMESTAMP GT PUSH2 0x273 JUMPI PUSH1 0x40 MLOAD PUSH32 0x8C379A000000000000000000000000000000000000000000000000000000000 DUP2 MSTORE PUSH1 0x4 ADD PUSH2 0x26A SWAP1 PUSH2 0x6FC JUMP JUMPDEST PUSH1 0x40 MLOAD DUP1 SWAP2 SUB SWAP1 REVERT JUMPDEST PUSH1 0x0 PUSH1 0x1 PUSH1 0x0 CALLER PUSH20 0xFFFFFFFFFFFFFFFFFFFFFFFFFFFFFFFFFFFFFFFF AND PUSH20 0xFFFFFFFFFFFFFFFFFFFFFFFFFFFFFFFFFFFFFFFF AND DUP2 MSTORE PUSH1 0x20 ADD SWAP1 DUP2 MSTORE PUSH1 0x20 ADD PUSH1 0x0 KECCAK256 SLOAD GT PUSH2 0x2F5 JUMPI PUSH1 0x40 MLOAD PUSH32 0x8C379A000000000000000000000000000000000000000000000000000000000 DUP2 MSTORE PUSH1 0x4 ADD PUSH2 0x2EC SWAP1 PUSH2 0x768 JUMP JUMPDEST PUSH1 0x40 MLOAD DUP1 SWAP2 SUB SWAP1 REVERT JUMPDEST PUSH1 0x0 PUSH1 0x1 PUSH1 0x0 CALLER PUSH20 0xFFFFFFFFFFFFFFFFFFFFFFFFFFFFFFFFFFFFFFFF AND PUSH20 0xFFFFFFFFFFFFFFFFFFFFFFFFFFFFFFFFFFFFFFFF AND DUP2 MSTORE PUSH1 0x20 ADD SWAP1 DUP2 MSTORE PUSH1 0x20 ADD PUSH1 0x0 KECCAK256 SLOAD SWAP1 POP CALLER PUSH20 0xFFFFFFFFFFFFFFFFFFFFFFFFFFFFFFFFFFFFFFFF AND PUSH2 0x8FC DUP3 SWAP1 DUP2 ISZERO MUL SWAP1 PUSH1 0x40 MLOAD PUSH1 0x0 PUSH1 0x40 MLOAD DUP1 DUP4 SUB DUP2 DUP6 DUP9 DUP9 CALL SWAP4 POP POP POP POP ISZERO DUP1 ISZERO PUSH2 0x37F JUMPI RETURNDATASIZE PUSH1 0x0 DUP1 RETURNDATACOPY RETURNDATASIZE PUSH1 0x0 REVERT JUMPDEST POP POP JUMP JUMPDEST PUSH1 0x1 PUSH1 0x20 MSTORE DUP1 PUSH1 0x0 MSTORE PUSH1 0x40 PUSH1 0x0 KECCAK256 PUSH1 0x0 SWAP2 POP SWAP1 POP SLOAD DUP2 JUMP JUMPDEST PUSH1 0x2 SLOAD DUP2 JUMP JUMPDEST PUSH1 0x0 DUP1 SLOAD SWAP1 PUSH2 0x100 EXP SWAP1 DIV PUSH20 0xFFFFFFFFFFFFFFFFFFFFFFFFFFFFFFFFFFFFFFFF AND DUP2 JUMP JUMPDEST PUSH1 0x0 DUP1 SLOAD SWAP1 PUSH2 0x100 EXP SWAP1 DIV PUSH20 0xFFFFFFFFFFFFFFFFFFFFFFFFFFFFFFFFFFFFFFFF AND PUSH20 0xFFFFFFFFFFFFFFFFFFFFFFFFFFFFFFFFFFFFFFFF AND CALLER PUSH20 0xFFFFFFFFFFFFFFFFFFFFFFFFFFFFFFFFFFFFFFFF AND EQ PUSH2 0x453 JUMPI PUSH1 0x40 MLOAD PUSH32 0x8C379A000000000000000000000000000000000000000000000000000000000 DUP2 MSTORE PUSH1 0x4 ADD PUSH2 0x44A SWAP1 PUSH2 0x7FA JUMP JUMPDEST PUSH1 0x40 MLOAD DUP1 SWAP2 SUB SWAP1 REVERT JUMPDEST PUSH1 0x0 DUP1 SLOAD SWAP1 PUSH2 0x100 EXP SWAP1 DIV PUSH20 0xFFFFFFFFFFFFFFFFFFFFFFFFFFFFFFFFFFFFFFFF AND PUSH20 0xFFFFFFFFFFFFFFFFFFFFFFFFFFFFFFFFFFFFFFFF AND PUSH2 0x8FC SELFBALANCE SWAP1 DUP2 ISZERO MUL SWAP1 PUSH1 0x40 MLOAD PUSH1 0x0 PUSH1 0x40 MLOAD DUP1 DUP4 SUB DUP2 DUP6 DUP9 DUP9 CALL SWAP4 POP POP POP POP ISZERO DUP1 ISZERO PUSH2 0x4B9 JUMPI RETURNDATASIZE PUSH1 0x0 DUP1 RETURNDATACOPY RETURNDATASIZE PUSH1 0x0 REVERT JUMPDEST POP JUMP JUMPDEST PUSH1 0x0 DUP2 SWAP1 POP SWAP2 SWAP1 POP JUMP JUMPDEST PUSH2 0x4CF DUP2 PUSH2 0x4BC JUMP JUMPDEST DUP3 MSTORE POP POP JUMP JUMPDEST PUSH1 0x0 PUSH1 0x20 DUP3 ADD SWAP1 POP PUSH2 0x4EA PUSH1 0x0 DUP4 ADD DUP5 PUSH2 0x4C6 JUMP JUMPDEST SWAP3 SWAP2 POP POP JUMP JUMPDEST PUSH1 0x0 DUP1 REVERT JUMPDEST PUSH1 0x0 PUSH20 0xFFFFFFFFFFFFFFFFFFFFFFFFFFFFFFFFFFFFFFFF DUP3 AND SWAP1 POP SWAP2 SWAP1 POP JUMP JUMPDEST PUSH1 0x0 PUSH2 0x520 DUP3 PUSH2 0x4F5 JUMP JUMPDEST SWAP1 POP SWAP2 SWAP1 POP JUMP JUMPDEST PUSH2 0x530 DUP2 PUSH2 0x515 JUMP JUMPDEST DUP2 EQ PUSH2 0x53B JUMPI PUSH1 0x0 DUP1 REVERT JUMPDEST POP JUMP JUMPDEST PUSH1 0x0 DUP2 CALLDATALOAD SWAP1 POP PUSH2 0x54D DUP2 PUSH2 0x527 JUMP JUMPDEST SWAP3 SWAP2 POP POP JUMP JUMPDEST PUSH1 0x0 PUSH1 0x20 DUP3 DUP5 SUB SLT ISZERO PUSH2 0x569 JUMPI PUSH2 0x568 PUSH2 0x4F0 JUMP JUMPDEST JUMPDEST PUSH1 0x0 PUSH2 0x577 DUP5 DUP3 DUP6 ADD PUSH2 0x53E JUMP JUMPDEST SWAP2 POP POP SWAP3 SWAP2 POP POP JUMP JUMPDEST PUSH2 0x589 DUP2 PUSH2 0x515 JUMP JUMPDEST DUP3 MSTORE POP POP JUMP JUMPDEST PUSH1 0x0 PUSH1 0x20 DUP3 ADD SWAP1 POP PUSH2 0x5A4 PUSH1 0x0 DUP4 ADD DUP5 PUSH2 0x580 JUMP JUMPDEST SWAP3 SWAP2 POP POP JUMP JUMPDEST PUSH1 0x0 DUP3 DUP3 MSTORE PUSH1 0x20 DUP3 ADD SWAP1 POP SWAP3 SWAP2 POP POP JUMP JUMPDEST PUSH32 0x6F6E6C792077696C6C2063726561746F722063616E2072657365742065787069 PUSH1 0x0 DUP3 ADD MSTORE PUSH32 0x7279000000000000000000000000000000000000000000000000000000000000 PUSH1 0x20 DUP3 ADD MSTORE POP JUMP JUMPDEST PUSH1 0x0 PUSH2 0x617 PUSH1 0x22 DUP4 PUSH2 0x5AA JUMP JUMPDEST SWAP2 POP PUSH2 0x622 DUP3 PUSH2 0x5BB JUMP JUMPDEST PUSH1 0x40 DUP3 ADD SWAP1 POP SWAP2 SWAP1 POP JUMP JUMPDEST PUSH1 0x0 PUSH1 0x20 DUP3 ADD SWAP1 POP DUP2 DUP2 SUB PUSH1 0x0 DUP4 ADD MSTORE PUSH2 0x646 DUP2 PUSH2 0x60A JUMP JUMPDEST SWAP1 POP SWAP2 SWAP1 POP JUMP JUMPDEST PUSH32 0x4E487B7100000000000000000000000000000000000000000000000000000000 PUSH1 0x0 MSTORE PUSH1 0x11 PUSH1 0x4 MSTORE PUSH1 0x24 PUSH1 0x0 REVERT JUMPDEST PUSH1 0x0 PUSH2 0x687 DUP3 PUSH2 0x4BC JUMP JUMPDEST SWAP2 POP PUSH2 0x692 DUP4 PUSH2 0x4BC JUMP JUMPDEST SWAP3 POP DUP3 DUP3 ADD SWAP1 POP DUP1 DUP3 GT ISZERO PUSH2 0x6AA JUMPI PUSH2 0x6A9 PUSH2 0x64D JUMP JUMPDEST JUMPDEST SWAP3 SWAP2 POP POP JUMP JUMPDEST PUSH32 0x596F752063616E6E6F7420636C61696D20746F6B656E73206E6F770000000000 PUSH1 0x0 DUP3 ADD MSTORE POP JUMP JUMPDEST PUSH1 0x0 PUSH2 0x6E6 PUSH1 0x1B DUP4 PUSH2 0x5AA JUMP JUMPDEST SWAP2 POP PUSH2 0x6F1 DUP3 PUSH2 0x6B0 JUMP JUMPDEST PUSH1 0x20 DUP3 ADD SWAP1 POP SWAP2 SWAP1 POP JUMP JUMPDEST PUSH1 0x0 PUSH1 0x20 DUP3 ADD SWAP1 POP DUP2 DUP2 SUB PUSH1 0x0 DUP4 ADD MSTORE PUSH2 0x715 DUP2 PUSH2 0x6D9 JUMP JUMPDEST SWAP1 POP SWAP2 SWAP1 POP JUMP JUMPDEST PUSH32 0x596F752068617665206E6F20746F6B656E73206C65667420746F20636C61696D PUSH1 0x0 DUP3 ADD MSTORE POP JUMP JUMPDEST PUSH1 0x0 PUSH2 0x752 PUSH1 0x20 DUP4 PUSH2 0x5AA JUMP JUMPDEST SWAP2 POP PUSH2 0x75D DUP3 PUSH2 0x71C JUMP JUMPDEST PUSH1 0x20 DUP3 ADD SWAP1 POP SWAP2 SWAP1 POP JUMP JUMPDEST PUSH1 0x0 PUSH1 0x20 DUP3 ADD SWAP1 POP DUP2 DUP2 SUB PUSH1 0x0 DUP4 ADD MSTORE PUSH2 0x781 DUP2 PUSH2 0x745 JUMP JUMPDEST SWAP1 POP SWAP2 SWAP1 POP JUMP JUMPDEST PUSH32 0x596F7520617265206E697420746865206F776E6572206F662074686973207769 PUSH1 0x0 DUP3 ADD MSTORE PUSH32 0x6C6C000000000000000000000000000000000000000000000000000000000000 PUSH1 0x20 DUP3 ADD MSTORE POP JUMP JUMPDEST PUSH1 0x0 PUSH2 0x7E4 PUSH1 0x22 DUP4 PUSH2 0x5AA JUMP JUMPDEST SWAP2 POP PUSH2 0x7EF DUP3 PUSH2 0x788 JUMP JUMPDEST PUSH1 0x40 DUP3 ADD SWAP1 POP SWAP2 SWAP1 POP JUMP JUMPDEST PUSH1 0x0 PUSH1 0x20 DUP3 ADD SWAP1 POP DUP2 DUP2 SUB PUSH1 0x0 DUP4 ADD MSTORE PUSH2 0x813 DUP2 PUSH2 0x7D7 JUMP JUMPDEST SWAP1 POP SWAP2 SWAP1 POP JUMP INVALID LOG2 PUSH5 0x6970667358 0x22 SLT KECCAK256 0xE2 CREATE2 0xA7 DUP15 SWAP3 0xFC 0xCF PUSH32 0x6CF40A3E6ECD725737BE22B14F43A93166FC60F53B4205F264736F6C63430008 GT STOP CALLER "},"methodIdentifiers":{"amount_to_give_beneficiary(address)":"ac5c9129","cancelWill()":"d558204e","claimTokens()":"48c54b9d","getBalance()":"12065fe0","resetExpiry()":"3b46150a","time_of_will_creation()":"c6d6ade1","will_owner()":"d4ac3156"}}}}}