{
  "_format": "hh-sol-artifact-1",
  "contractName": "Will",
  "sourceName": "contracts/Will.sol",
  "abi": [
    {
      "inputs": [
        {
          "internalType": "address",
          "name": "_will_owner",
          "type": "address"
        },
        {
          "internalType": "uint256[]",
          "name": "_amounts",
          "type": "uint256[]"
        },
        {
          "internalType": "address[]",
          "name": "_beneficiaries",
          "type": "address[]"
        },
        {
          "internalType": "uint256",
          "name": "_time_of_will_creation",
          "type": "uint256"
        }
      ],
      "stateMutability": "nonpayable",
      "type": "constructor"
    },
    {
      "inputs": [
        {
          "internalType": "address",
          "name": "",
          "type": "address"
        }
      ],
      "name": "amount_to_give_beneficiary",
      "outputs": [
        {
          "internalType": "uint256",
          "name": "",
          "type": "uint256"
        }
      ],
      "stateMutability": "view",
      "type": "function"
    },
    {
      "inputs": [],
      "name": "cancelWill",
      "outputs": [],
      "stateMutability": "nonpayable",
      "type": "function"
    },
    {
      "inputs": [],
      "name": "claimTokens",
      "outputs": [],
      "stateMutability": "nonpayable",
      "type": "function"
    },
    {
      "inputs": [],
      "name": "getBalance",
      "outputs": [
        {
          "internalType": "uint256",
          "name": "",
          "type": "uint256"
        }
      ],
      "stateMutability": "view",
      "type": "function"
    },
    {
      "inputs": [],
      "name": "resetExpiry",
      "outputs": [],
      "stateMutability": "nonpayable",
      "type": "function"
    },
    {
      "inputs": [],
      "name": "time_of_will_creation",
      "outputs": [
        {
          "internalType": "uint256",
          "name": "",
          "type": "uint256"
        }
      ],
      "stateMutability": "view",
      "type": "function"
    },
    {
      "inputs": [],
      "name": "will_owner",
      "outputs": [
        {
          "internalType": "address",
          "name": "",
          "type": "address"
        }
      ],
      "stateMutability": "view",
      "type": "function"
    },
    {
      "stateMutability": "payable",
      "type": "receive"
    }
  ],
  "bytecode": "0x60806040523480156200001157600080fd5b5060405162000de438038062000de4833981810160405281019062000037919062000429565b836000806101000a81548173ffffffffffffffffffffffffffffffffffffffff021916908373ffffffffffffffffffffffffffffffffffffffff1602179055508060028190555060005b83518110156200011f57838181518110620000a157620000a0620004d9565b5b602002602001015160016000858481518110620000c357620000c2620004d9565b5b602002602001015173ffffffffffffffffffffffffffffffffffffffff1673ffffffffffffffffffffffffffffffffffffffff168152602001908152602001600020819055508080620001169062000537565b91505062000081565b505050505062000584565b6000604051905090565b600080fd5b600080fd5b600073ffffffffffffffffffffffffffffffffffffffff82169050919050565b60006200016b826200013e565b9050919050565b6200017d816200015e565b81146200018957600080fd5b50565b6000815190506200019d8162000172565b92915050565b600080fd5b6000601f19601f8301169050919050565b7f4e487b7100000000000000000000000000000000000000000000000000000000600052604160045260246000fd5b620001f382620001a8565b810181811067ffffffffffffffff82111715620002155762000214620001b9565b5b80604052505050565b60006200022a6200012a565b9050620002388282620001e8565b919050565b600067ffffffffffffffff8211156200025b576200025a620001b9565b5b602082029050602081019050919050565b600080fd5b6000819050919050565b620002868162000271565b81146200029257600080fd5b50565b600081519050620002a6816200027b565b92915050565b6000620002c3620002bd846200023d565b6200021e565b90508083825260208201905060208402830185811115620002e957620002e86200026c565b5b835b8181101562000316578062000301888262000295565b845260208401935050602081019050620002eb565b5050509392505050565b600082601f830112620003385762000337620001a3565b5b81516200034a848260208601620002ac565b91505092915050565b600067ffffffffffffffff821115620003715762000370620001b9565b5b602082029050602081019050919050565b600062000399620003938462000353565b6200021e565b90508083825260208201905060208402830185811115620003bf57620003be6200026c565b5b835b81811015620003ec5780620003d788826200018c565b845260208401935050602081019050620003c1565b5050509392505050565b600082601f8301126200040e576200040d620001a3565b5b81516200042084826020860162000382565b91505092915050565b6000806000806080858703121562000446576200044562000134565b5b600062000456878288016200018c565b945050602085015167ffffffffffffffff8111156200047a576200047962000139565b5b620004888782880162000320565b935050604085015167ffffffffffffffff811115620004ac57620004ab62000139565b5b620004ba87828801620003f6565b9250506060620004cd8782880162000295565b91505092959194509250565b7f4e487b7100000000000000000000000000000000000000000000000000000000600052603260045260246000fd5b7f4e487b7100000000000000000000000000000000000000000000000000000000600052601160045260246000fd5b6000620005448262000271565b91507fffffffffffffffffffffffffffffffffffffffffffffffffffffffffffffffff820362000579576200057862000508565b5b600182019050919050565b61085080620005946000396000f3fe6080604052600436106100745760003560e01c8063ac5c91291161004e578063ac5c9129146100d9578063c6d6ade114610116578063d4ac315614610141578063d558204e1461016c5761007b565b806312065fe0146100805780633b46150a146100ab57806348c54b9d146100c25761007b565b3661007b57005b600080fd5b34801561008c57600080fd5b50610095610183565b6040516100a291906104d5565b60405180910390f35b3480156100b757600080fd5b506100c061018b565b005b3480156100ce57600080fd5b506100d7610222565b005b3480156100e557600080fd5b5061010060048036038101906100fb9190610553565b610383565b60405161010d91906104d5565b60405180910390f35b34801561012257600080fd5b5061012b61039b565b60405161013891906104d5565b60405180910390f35b34801561014d57600080fd5b506101566103a1565b604051610163919061058f565b60405180910390f35b34801561017857600080fd5b506101816103c5565b005b600047905090565b60008054906101000a900473ffffffffffffffffffffffffffffffffffffffff1673ffffffffffffffffffffffffffffffffffffffff163373ffffffffffffffffffffffffffffffffffffffff1614610219576040517f08c379a00000000000000000000000000000000000000000000000000000000081526004016102109061062d565b60405180910390fd5b42600281905550565b61012c600254610232919061067c565b4211610273576040517f08c379a000000000000000000000000000000000000000000000000000000000815260040161026a906106fc565b60405180910390fd5b6000600160003373ffffffffffffffffffffffffffffffffffffffff1673ffffffffffffffffffffffffffffffffffffffff16815260200190815260200160002054116102f5576040517f08c379a00000000000000000000000000000000000000000000000000000000081526004016102ec90610768565b60405180910390fd5b6000600160003373ffffffffffffffffffffffffffffffffffffffff1673ffffffffffffffffffffffffffffffffffffffff1681526020019081526020016000205490503373ffffffffffffffffffffffffffffffffffffffff166108fc829081150290604051600060405180830381858888f1935050505015801561037f573d6000803e3d6000fd5b5050565b60016020528060005260406000206000915090505481565b60025481565b60008054906101000a900473ffffffffffffffffffffffffffffffffffffffff1681565b60008054906101000a900473ffffffffffffffffffffffffffffffffffffffff1673ffffffffffffffffffffffffffffffffffffffff163373ffffffffffffffffffffffffffffffffffffffff1614610453576040517f08c379a000000000000000000000000000000000000000000000000000000000815260040161044a906107fa565b60405180910390fd5b60008054906101000a900473ffffffffffffffffffffffffffffffffffffffff1673ffffffffffffffffffffffffffffffffffffffff166108fc479081150290604051600060405180830381858888f193505050501580156104b9573d6000803e3d6000fd5b50565b6000819050919050565b6104cf816104bc565b82525050565b60006020820190506104ea60008301846104c6565b92915050565b600080fd5b600073ffffffffffffffffffffffffffffffffffffffff82169050919050565b6000610520826104f5565b9050919050565b61053081610515565b811461053b57600080fd5b50565b60008135905061054d81610527565b92915050565b600060208284031215610569576105686104f0565b5b60006105778482850161053e565b91505092915050565b61058981610515565b82525050565b60006020820190506105a46000830184610580565b92915050565b600082825260208201905092915050565b7f6f6e6c792077696c6c2063726561746f722063616e207265736574206578706960008201527f7279000000000000000000000000000000000000000000000000000000000000602082015250565b60006106176022836105aa565b9150610622826105bb565b604082019050919050565b600060208201905081810360008301526106468161060a565b9050919050565b7f4e487b7100000000000000000000000000000000000000000000000000000000600052601160045260246000fd5b6000610687826104bc565b9150610692836104bc565b92508282019050808211156106aa576106a961064d565b5b92915050565b7f596f752063616e6e6f7420636c61696d20746f6b656e73206e6f770000000000600082015250565b60006106e6601b836105aa565b91506106f1826106b0565b602082019050919050565b60006020820190508181036000830152610715816106d9565b9050919050565b7f596f752068617665206e6f20746f6b656e73206c65667420746f20636c61696d600082015250565b60006107526020836105aa565b915061075d8261071c565b602082019050919050565b6000602082019050818103600083015261078181610745565b9050919050565b7f596f7520617265206e697420746865206f776e6572206f66207468697320776960008201527f6c6c000000000000000000000000000000000000000000000000000000000000602082015250565b60006107e46022836105aa565b91506107ef82610788565b604082019050919050565b60006020820190508181036000830152610813816107d7565b905091905056fea2646970667358221220e2f5a78e92fccf7f6cf40a3e6ecd725737be22b14f43a93166fc60f53b4205f264736f6c63430008110033",
  "linkReferences": {},
  "deployedLinkReferences": {}
}