{
  "_format": "hh-sol-artifact-1",
  "contractName": "WillFactory",
  "sourceName": "contracts/WillFactory.sol",
  "abi": [
    {
      "inputs": [],
      "name": "admin",
      "outputs": [
        {
          "internalType": "address",
          "name": "",
          "type": "address"
        }
      ],
      "stateMutability": "view",
      "type": "function"
    },
    {
      "inputs": [
        {
          "internalType": "uint256[]",
          "name": "_amount",
          "type": "uint256[]"
        },
        {
          "internalType": "address[]",
          "name": "_beneficiaries",
          "type": "address[]"
        },
        {
          "internalType": "string",
          "name": "_title",
          "type": "string"
        },
        {
          "internalType": "string",
          "name": "_description",
          "type": "string"
        }
      ],
      "name": "create_will",
      "outputs": [],
      "stateMutability": "payable",
      "type": "function"
    },
    {
      "inputs": [
        {
          "internalType": "uint256",
          "name": "_id",
          "type": "uint256"
        }
      ],
      "name": "get_beneficiary_by_id",
      "outputs": [
        {
          "internalType": "address[]",
          "name": "",
          "type": "address[]"
        }
      ],
      "stateMutability": "view",
      "type": "function"
    },
    {
      "inputs": [
        {
          "internalType": "uint256",
          "name": "",
          "type": "uint256"
        }
      ],
      "name": "get_will_by_id",
      "outputs": [
        {
          "internalType": "uint256",
          "name": "id",
          "type": "uint256"
        },
        {
          "internalType": "string",
          "name": "title",
          "type": "string"
        },
        {
          "internalType": "address",
          "name": "will_creator",
          "type": "address"
        },
        {
          "internalType": "string",
          "name": "description",
          "type": "string"
        },
        {
          "internalType": "uint256",
          "name": "time_created_at",
          "type": "uint256"
        },
        {
          "internalType": "bool",
          "name": "is_inActive",
          "type": "bool"
        },
        {
          "internalType": "contract Will",
          "name": "will",
          "type": "address"
        }
      ],
      "stateMutability": "view",
      "type": "function"
    },
    {
      "inputs": [],
      "name": "get_wills",
      "outputs": [
        {
          "components": [
            {
              "internalType": "uint256",
              "name": "id",
              "type": "uint256"
            },
            {
              "internalType": "string",
              "name": "title",
              "type": "string"
            },
            {
              "internalType": "address",
              "name": "will_creator",
              "type": "address"
            },
            {
              "internalType": "string",
              "name": "description",
              "type": "string"
            },
            {
              "internalType": "address[]",
              "name": "beneficiaries",
              "type": "address[]"
            },
            {
              "internalType": "uint256",
              "name": "time_created_at",
              "type": "uint256"
            },
            {
              "internalType": "bool",
              "name": "is_inActive",
              "type": "bool"
            },
            {
              "internalType": "contract Will",
              "name": "will",
              "type": "address"
            }
          ],
          "internalType": "struct WillFactory.Will_Info[]",
          "name": "",
          "type": "tuple[]"
        }
      ],
      "stateMutability": "view",
      "type": "function"
    },
    {
      "inputs": [],
      "name": "get_wills_by_beneficiary",
      "outputs": [
        {
          "components": [
            {
              "internalType": "uint256",
              "name": "id",
              "type": "uint256"
            },
            {
              "internalType": "string",
              "name": "title",
              "type": "string"
            },
            {
              "internalType": "address",
              "name": "will_creator",
              "type": "address"
            },
            {
              "internalType": "string",
              "name": "description",
              "type": "string"
            },
            {
              "internalType": "address[]",
              "name": "beneficiaries",
              "type": "address[]"
            },
            {
              "internalType": "uint256",
              "name": "time_created_at",
              "type": "uint256"
            },
            {
              "internalType": "bool",
              "name": "is_inActive",
              "type": "bool"
            },
            {
              "internalType": "contract Will",
              "name": "will",
              "type": "address"
            }
          ],
          "internalType": "struct WillFactory.Will_Info[]",
          "name": "",
          "type": "tuple[]"
        }
      ],
      "stateMutability": "view",
      "type": "function"
    },
    {
      "inputs": [
        {
          "internalType": "address",
          "name": "",
          "type": "address"
        },
        {
          "internalType": "uint256",
          "name": "",
          "type": "uint256"
        }
      ],
      "name": "will_creator_beneficiaries",
      "outputs": [
        {
          "internalType": "uint256",
          "name": "id",
          "type": "uint256"
        },
        {
          "internalType": "string",
          "name": "title",
          "type": "string"
        },
        {
          "internalType": "address",
          "name": "will_creator",
          "type": "address"
        },
        {
          "internalType": "string",
          "name": "description",
          "type": "string"
        },
        {
          "internalType": "uint256",
          "name": "time_created_at",
          "type": "uint256"
        },
        {
          "internalType": "bool",
          "name": "is_inActive",
          "type": "bool"
        },
        {
          "internalType": "contract Will",
          "name": "will",
          "type": "address"
        }
      ],
      "stateMutability": "view",
      "type": "function"
    },
    {
      "stateMutability": "payable",
      "type": "receive"
    }
  ],
  "bytecode": "0x608060405234801561001057600080fd5b50613076806100206000396000f3fe6080604052600436106200007f5760003560e01c80638d8746b611620000555780638d8746b6146200010c578063b05802fd1462000150578063cecb2d1e146200019a578063f851a44014620001e45762000087565b80633c15905d146200008c5780635a7b7a2714620000bc57806369c96f2614620000dc5762000087565b366200008757005b600080fd5b3480156200009957600080fd5b50620000a462000214565b604051620000b39190620015f9565b60405180910390f35b620000da6004803603810190620000d4919062001995565b620005a7565b005b348015620000e957600080fd5b50620000f46200088e565b604051620001039190620015f9565b60405180910390f35b3480156200011957600080fd5b5062000138600480360381019062000132919062001a83565b62000c8c565b60405162000147919062001b30565b60405180910390f35b3480156200015d57600080fd5b506200017c600480360381019062000176919062001b54565b62000d38565b60405162000191979695949392919062001c31565b60405180910390f35b348015620001a757600080fd5b50620001c66004803603810190620001c0919062001a83565b62000ef4565b604051620001db979695949392919062001c31565b60405180910390f35b348015620001f157600080fd5b50620001fc620010a3565b6040516200020b919062001cbc565b60405180910390f35b60606000620002246000620010c9565b90506000808267ffffffffffffffff81111562000246576200024562001636565b5b6040519080825280602002602001820160405280156200028357816020015b6200026f620010ed565b815260200190600190039081620002655790505b50905060005b838110156200059d576000600260008381526020019081526020016000206040518061010001604052908160008201548152602001600182018054620002cf9062001d08565b80601f0160208091040260200160405190810160405280929190818152602001828054620002fd9062001d08565b80156200034e5780601f1062000322576101008083540402835291602001916200034e565b820191906000526020600020905b8154815290600101906020018083116200033057829003601f168201915b505050505081526020016002820160009054906101000a900473ffffffffffffffffffffffffffffffffffffffff1673ffffffffffffffffffffffffffffffffffffffff1673ffffffffffffffffffffffffffffffffffffffff168152602001600382018054620003bf9062001d08565b80601f0160208091040260200160405190810160405280929190818152602001828054620003ed9062001d08565b80156200043e5780601f1062000412576101008083540402835291602001916200043e565b820191906000526020600020905b8154815290600101906020018083116200042057829003601f168201915b5050505050815260200160048201805480602002602001604051908101604052809291908181526020018280548015620004ce57602002820191906000526020600020905b8160009054906101000a900473ffffffffffffffffffffffffffffffffffffffff1673ffffffffffffffffffffffffffffffffffffffff168152602001906001019080831162000483575b50505050508152602001600582015481526020016006820160009054906101000a900460ff161515151581526020016006820160019054906101000a900473ffffffffffffffffffffffffffffffffffffffff1673ffffffffffffffffffffffffffffffffffffffff1673ffffffffffffffffffffffffffffffffffffffff16815250509050808385815181106200056b576200056a62001d3d565b5b60200260200101819052508380620005839062001d9b565b945050508080620005949062001d9b565b91505062000289565b5080935050505090565b600080600090505b8551811015620005fc57858181518110620005cf57620005ce62001d3d565b5b602002602001015182620005e4919062001de8565b91508080620005f39062001d9b565b915050620005af565b5080341462000642576040517f08c379a0000000000000000000000000000000000000000000000000000000008152600401620006399062001e73565b60405180910390fd5b6000620006506000620010c9565b905060004290506000338888846040516200066b9062001160565b6200067a949392919062001f52565b604051809103906000f08015801562000697573d6000803e3d6000fd5b50905060006040518061010001604052808581526020018881526020013373ffffffffffffffffffffffffffffffffffffffff1681526020018781526020018981526020018481526020016000151581526020018373ffffffffffffffffffffffffffffffffffffffff16815250905080600260008681526020019081526020016000206000820151816000015560208201518160010190816200073c919062002175565b5060408201518160020160006101000a81548173ffffffffffffffffffffffffffffffffffffffff021916908373ffffffffffffffffffffffffffffffffffffffff16021790555060608201518160030190816200079b919062002175565b506080820151816004019080519060200190620007ba9291906200116e565b5060a0820151816005015560c08201518160060160006101000a81548160ff02191690831515021790555060e08201518160060160016101000a81548173ffffffffffffffffffffffffffffffffffffffff021916908373ffffffffffffffffffffffffffffffffffffffff1602179055509050506200083b6000620010d7565b8173ffffffffffffffffffffffffffffffffffffffff166108fc349081150290604051600060405180830381858888f1935050505015801562000882573d6000803e3d6000fd5b50505050505050505050565b606060006200089e6000620010c9565b90506000808267ffffffffffffffff811115620008c057620008bf62001636565b5b604051908082528060200260200182016040528015620008fd57816020015b620008e9620010ed565b815260200190600190039081620008df5790505b50905060005b8381101562000c82573373ffffffffffffffffffffffffffffffffffffffff166002600083815260200190815260200160002060020160009054906101000a900473ffffffffffffffffffffffffffffffffffffffff1673ffffffffffffffffffffffffffffffffffffffff160362000c6c576000600260008381526020019081526020016000206040518061010001604052908160008201548152602001600182018054620009b39062001d08565b80601f0160208091040260200160405190810160405280929190818152602001828054620009e19062001d08565b801562000a325780601f1062000a065761010080835404028352916020019162000a32565b820191906000526020600020905b81548152906001019060200180831162000a1457829003601f168201915b505050505081526020016002820160009054906101000a900473ffffffffffffffffffffffffffffffffffffffff1673ffffffffffffffffffffffffffffffffffffffff1673ffffffffffffffffffffffffffffffffffffffff16815260200160038201805462000aa39062001d08565b80601f016020809104026020016040519081016040528092919081815260200182805462000ad19062001d08565b801562000b225780601f1062000af65761010080835404028352916020019162000b22565b820191906000526020600020905b81548152906001019060200180831162000b0457829003601f168201915b505050505081526020016004820180548060200260200160405190810160405280929190818152602001828054801562000bb257602002820191906000526020600020905b8160009054906101000a900473ffffffffffffffffffffffffffffffffffffffff1673ffffffffffffffffffffffffffffffffffffffff168152602001906001019080831162000b67575b50505050508152602001600582015481526020016006820160009054906101000a900460ff161515151581526020016006820160019054906101000a900473ffffffffffffffffffffffffffffffffffffffff1673ffffffffffffffffffffffffffffffffffffffff1673ffffffffffffffffffffffffffffffffffffffff168152505090508083858151811062000c4f5762000c4e62001d3d565b5b6020026020010181905250838062000c679062001d9b565b945050505b808062000c799062001d9b565b91505062000903565b5080935050505090565b606060006002600084815260200190815260200160002060040190508080548060200260200160405190810160405280929190818152602001828054801562000d2b57602002820191906000526020600020905b8160009054906101000a900473ffffffffffffffffffffffffffffffffffffffff1673ffffffffffffffffffffffffffffffffffffffff168152602001906001019080831162000ce0575b5050505050915050919050565b60036020528160005260406000206020528060005260406000206000915091505080600001549080600101805462000d709062001d08565b80601f016020809104026020016040519081016040528092919081815260200182805462000d9e9062001d08565b801562000def5780601f1062000dc35761010080835404028352916020019162000def565b820191906000526020600020905b81548152906001019060200180831162000dd157829003601f168201915b5050505050908060020160009054906101000a900473ffffffffffffffffffffffffffffffffffffffff169080600301805462000e2c9062001d08565b80601f016020809104026020016040519081016040528092919081815260200182805462000e5a9062001d08565b801562000eab5780601f1062000e7f5761010080835404028352916020019162000eab565b820191906000526020600020905b81548152906001019060200180831162000e8d57829003601f168201915b5050505050908060050154908060060160009054906101000a900460ff16908060060160019054906101000a900473ffffffffffffffffffffffffffffffffffffffff16905087565b600260205280600052604060002060009150905080600001549080600101805462000f1f9062001d08565b80601f016020809104026020016040519081016040528092919081815260200182805462000f4d9062001d08565b801562000f9e5780601f1062000f725761010080835404028352916020019162000f9e565b820191906000526020600020905b81548152906001019060200180831162000f8057829003601f168201915b5050505050908060020160009054906101000a900473ffffffffffffffffffffffffffffffffffffffff169080600301805462000fdb9062001d08565b80601f0160208091040260200160405190810160405280929190818152602001828054620010099062001d08565b80156200105a5780601f106200102e576101008083540402835291602001916200105a565b820191906000526020600020905b8154815290600101906020018083116200103c57829003601f168201915b5050505050908060050154908060060160009054906101000a900460ff16908060060160019054906101000a900473ffffffffffffffffffffffffffffffffffffffff16905087565b600160009054906101000a900473ffffffffffffffffffffffffffffffffffffffff1681565b600081600001549050919050565b6001816000016000828254019250508190555050565b6040518061010001604052806000815260200160608152602001600073ffffffffffffffffffffffffffffffffffffffff168152602001606081526020016060815260200160008152602001600015158152602001600073ffffffffffffffffffffffffffffffffffffffff1681525090565b610de4806200225d83390190565b828054828255906000526020600020908101928215620011ea579160200282015b82811115620011e95782518260006101000a81548173ffffffffffffffffffffffffffffffffffffffff021916908373ffffffffffffffffffffffffffffffffffffffff160217905550916020019190600101906200118f565b5b509050620011f99190620011fd565b5090565b5b8082111562001218576000816000905550600101620011fe565b5090565b600081519050919050565b600082825260208201905092915050565b6000819050602082019050919050565b6000819050919050565b6200125d8162001248565b82525050565b600081519050919050565b600082825260208201905092915050565b60005b838110156200129f57808201518184015260208101905062001282565b60008484015250505050565b6000601f19601f8301169050919050565b6000620012c98262001263565b620012d581856200126e565b9350620012e78185602086016200127f565b620012f281620012ab565b840191505092915050565b600073ffffffffffffffffffffffffffffffffffffffff82169050919050565b60006200132a82620012fd565b9050919050565b6200133c816200131d565b82525050565b600081519050919050565b600082825260208201905092915050565b6000819050602082019050919050565b60006200137c838362001331565b60208301905092915050565b6000602082019050919050565b6000620013a28262001342565b620013ae81856200134d565b9350620013bb836200135e565b8060005b83811015620013f2578151620013d688826200136e565b9750620013e38362001388565b925050600181019050620013bf565b5085935050505092915050565b60008115159050919050565b6200141681620013ff565b82525050565b6000819050919050565b600062001447620014416200143b84620012fd565b6200141c565b620012fd565b9050919050565b60006200145b8262001426565b9050919050565b60006200146f826200144e565b9050919050565b620014818162001462565b82525050565b600061010083016000830151620014a2600086018262001252565b5060208301518482036020860152620014bc8282620012bc565b9150506040830151620014d3604086018262001331565b5060608301518482036060860152620014ed8282620012bc565b9150506080830151848203608086015262001509828262001395565b91505060a08301516200152060a086018262001252565b5060c08301516200153560c08601826200140b565b5060e08301516200154a60e086018262001476565b508091505092915050565b600062001563838362001487565b905092915050565b6000602082019050919050565b600062001585826200121c565b62001591818562001227565b935083602082028501620015a58562001238565b8060005b85811015620015e75784840389528151620015c5858262001555565b9450620015d2836200156b565b925060208a01995050600181019050620015a9565b50829750879550505050505092915050565b6000602082019050818103600083015262001615818462001578565b905092915050565b6000604051905090565b600080fd5b600080fd5b600080fd5b7f4e487b7100000000000000000000000000000000000000000000000000000000600052604160045260246000fd5b6200167082620012ab565b810181811067ffffffffffffffff8211171562001692576200169162001636565b5b80604052505050565b6000620016a76200161d565b9050620016b5828262001665565b919050565b600067ffffffffffffffff821115620016d857620016d762001636565b5b602082029050602081019050919050565b600080fd5b620016f98162001248565b81146200170557600080fd5b50565b6000813590506200171981620016ee565b92915050565b6000620017366200173084620016ba565b6200169b565b905080838252602082019050602084028301858111156200175c576200175b620016e9565b5b835b8181101562001789578062001774888262001708565b8452602084019350506020810190506200175e565b5050509392505050565b600082601f830112620017ab57620017aa62001631565b5b8135620017bd8482602086016200171f565b91505092915050565b600067ffffffffffffffff821115620017e457620017e362001636565b5b602082029050602081019050919050565b62001800816200131d565b81146200180c57600080fd5b50565b6000813590506200182081620017f5565b92915050565b60006200183d6200183784620017c6565b6200169b565b90508083825260208201905060208402830185811115620018635762001862620016e9565b5b835b818110156200189057806200187b88826200180f565b84526020840193505060208101905062001865565b5050509392505050565b600082601f830112620018b257620018b162001631565b5b8135620018c484826020860162001826565b91505092915050565b600080fd5b600067ffffffffffffffff821115620018f057620018ef62001636565b5b620018fb82620012ab565b9050602081019050919050565b82818337600083830152505050565b60006200192e6200192884620018d2565b6200169b565b9050828152602081018484840111156200194d576200194c620018cd565b5b6200195a84828562001908565b509392505050565b600082601f8301126200197a576200197962001631565b5b81356200198c84826020860162001917565b91505092915050565b60008060008060808587031215620019b257620019b162001627565b5b600085013567ffffffffffffffff811115620019d357620019d26200162c565b5b620019e18782880162001793565b945050602085013567ffffffffffffffff81111562001a055762001a046200162c565b5b62001a13878288016200189a565b935050604085013567ffffffffffffffff81111562001a375762001a366200162c565b5b62001a458782880162001962565b925050606085013567ffffffffffffffff81111562001a695762001a686200162c565b5b62001a778782880162001962565b91505092959194509250565b60006020828403121562001a9c5762001a9b62001627565b5b600062001aac8482850162001708565b91505092915050565b600082825260208201905092915050565b600062001ad38262001342565b62001adf818562001ab5565b935062001aec836200135e565b8060005b8381101562001b2357815162001b0788826200136e565b975062001b148362001388565b92505060018101905062001af0565b5085935050505092915050565b6000602082019050818103600083015262001b4c818462001ac6565b905092915050565b6000806040838503121562001b6e5762001b6d62001627565b5b600062001b7e858286016200180f565b925050602062001b918582860162001708565b9150509250929050565b62001ba68162001248565b82525050565b600082825260208201905092915050565b600062001bca8262001263565b62001bd6818562001bac565b935062001be88185602086016200127f565b62001bf381620012ab565b840191505092915050565b62001c09816200131d565b82525050565b62001c1a81620013ff565b82525050565b62001c2b8162001462565b82525050565b600060e08201905062001c48600083018a62001b9b565b818103602083015262001c5c818962001bbd565b905062001c6d604083018862001bfe565b818103606083015262001c81818762001bbd565b905062001c92608083018662001b9b565b62001ca160a083018562001c0f565b62001cb060c083018462001c20565b98975050505050505050565b600060208201905062001cd3600083018462001bfe565b92915050565b7f4e487b7100000000000000000000000000000000000000000000000000000000600052602260045260246000fd5b6000600282049050600182168062001d2157607f821691505b60208210810362001d375762001d3662001cd9565b5b50919050565b7f4e487b7100000000000000000000000000000000000000000000000000000000600052603260045260246000fd5b7f4e487b7100000000000000000000000000000000000000000000000000000000600052601160045260246000fd5b600062001da88262001248565b91507fffffffffffffffffffffffffffffffffffffffffffffffffffffffffffffffff820362001ddd5762001ddc62001d6c565b5b600182019050919050565b600062001df58262001248565b915062001e028362001248565b925082820190508082111562001e1d5762001e1c62001d6c565b5b92915050565b7f506c656173652073656e6420612076616c696420616d6f756e74000000000000600082015250565b600062001e5b601a8362001bac565b915062001e688262001e23565b602082019050919050565b6000602082019050818103600083015262001e8e8162001e4c565b9050919050565b600081519050919050565b600082825260208201905092915050565b6000819050602082019050919050565b600062001ecf838362001252565b60208301905092915050565b6000602082019050919050565b600062001ef58262001e95565b62001f01818562001ea0565b935062001f0e8362001eb1565b8060005b8381101562001f4557815162001f29888262001ec1565b975062001f368362001edb565b92505060018101905062001f12565b5085935050505092915050565b600060808201905062001f69600083018762001bfe565b818103602083015262001f7d818662001ee8565b9050818103604083015262001f93818562001ac6565b905062001fa4606083018462001b9b565b95945050505050565b60008190508160005260206000209050919050565b60006020601f8301049050919050565b600082821b905092915050565b600060088302620020117fffffffffffffffffffffffffffffffffffffffffffffffffffffffffffffffff8262001fd2565b6200201d868362001fd2565b95508019841693508086168417925050509392505050565b600062002056620020506200204a8462001248565b6200141c565b62001248565b9050919050565b6000819050919050565b620020728362002035565b6200208a62002081826200205d565b84845462001fdf565b825550505050565b600090565b620020a162002092565b620020ae81848462002067565b505050565b5b81811015620020d657620020ca60008262002097565b600181019050620020b4565b5050565b601f8211156200212557620020ef8162001fad565b620020fa8462001fc2565b810160208510156200210a578190505b62002122620021198562001fc2565b830182620020b3565b50505b505050565b600082821c905092915050565b60006200214a600019846008026200212a565b1980831691505092915050565b600062002165838362002137565b9150826002028217905092915050565b620021808262001263565b67ffffffffffffffff8111156200219c576200219b62001636565b5b620021a8825462001d08565b620021b5828285620020da565b600060209050601f831160018114620021ed5760008415620021d8578287015190505b620021e4858262002157565b86555062002254565b601f198416620021fd8662001fad565b60005b82811015620022275784890151825560018201915060208501945060208101905062002200565b8683101562002247578489015162002243601f89168262002137565b8355505b6001600288020188555050505b50505050505056fe60806040523480156200001157600080fd5b5060405162000de438038062000de4833981810160405281019062000037919062000429565b836000806101000a81548173ffffffffffffffffffffffffffffffffffffffff021916908373ffffffffffffffffffffffffffffffffffffffff1602179055508060028190555060005b83518110156200011f57838181518110620000a157620000a0620004d9565b5b602002602001015160016000858481518110620000c357620000c2620004d9565b5b602002602001015173ffffffffffffffffffffffffffffffffffffffff1673ffffffffffffffffffffffffffffffffffffffff168152602001908152602001600020819055508080620001169062000537565b91505062000081565b505050505062000584565b6000604051905090565b600080fd5b600080fd5b600073ffffffffffffffffffffffffffffffffffffffff82169050919050565b60006200016b826200013e565b9050919050565b6200017d816200015e565b81146200018957600080fd5b50565b6000815190506200019d8162000172565b92915050565b600080fd5b6000601f19601f8301169050919050565b7f4e487b7100000000000000000000000000000000000000000000000000000000600052604160045260246000fd5b620001f382620001a8565b810181811067ffffffffffffffff82111715620002155762000214620001b9565b5b80604052505050565b60006200022a6200012a565b9050620002388282620001e8565b919050565b600067ffffffffffffffff8211156200025b576200025a620001b9565b5b602082029050602081019050919050565b600080fd5b6000819050919050565b620002868162000271565b81146200029257600080fd5b50565b600081519050620002a6816200027b565b92915050565b6000620002c3620002bd846200023d565b6200021e565b90508083825260208201905060208402830185811115620002e957620002e86200026c565b5b835b8181101562000316578062000301888262000295565b845260208401935050602081019050620002eb565b5050509392505050565b600082601f830112620003385762000337620001a3565b5b81516200034a848260208601620002ac565b91505092915050565b600067ffffffffffffffff821115620003715762000370620001b9565b5b602082029050602081019050919050565b600062000399620003938462000353565b6200021e565b90508083825260208201905060208402830185811115620003bf57620003be6200026c565b5b835b81811015620003ec5780620003d788826200018c565b845260208401935050602081019050620003c1565b5050509392505050565b600082601f8301126200040e576200040d620001a3565b5b81516200042084826020860162000382565b91505092915050565b6000806000806080858703121562000446576200044562000134565b5b600062000456878288016200018c565b945050602085015167ffffffffffffffff8111156200047a576200047962000139565b5b620004888782880162000320565b935050604085015167ffffffffffffffff811115620004ac57620004ab62000139565b5b620004ba87828801620003f6565b9250506060620004cd8782880162000295565b91505092959194509250565b7f4e487b7100000000000000000000000000000000000000000000000000000000600052603260045260246000fd5b7f4e487b7100000000000000000000000000000000000000000000000000000000600052601160045260246000fd5b6000620005448262000271565b91507fffffffffffffffffffffffffffffffffffffffffffffffffffffffffffffffff820362000579576200057862000508565b5b600182019050919050565b61085080620005946000396000f3fe6080604052600436106100745760003560e01c8063ac5c91291161004e578063ac5c9129146100d9578063c6d6ade114610116578063d4ac315614610141578063d558204e1461016c5761007b565b806312065fe0146100805780633b46150a146100ab57806348c54b9d146100c25761007b565b3661007b57005b600080fd5b34801561008c57600080fd5b50610095610183565b6040516100a291906104d5565b60405180910390f35b3480156100b757600080fd5b506100c061018b565b005b3480156100ce57600080fd5b506100d7610222565b005b3480156100e557600080fd5b5061010060048036038101906100fb9190610553565b610383565b60405161010d91906104d5565b60405180910390f35b34801561012257600080fd5b5061012b61039b565b60405161013891906104d5565b60405180910390f35b34801561014d57600080fd5b506101566103a1565b604051610163919061058f565b60405180910390f35b34801561017857600080fd5b506101816103c5565b005b600047905090565b60008054906101000a900473ffffffffffffffffffffffffffffffffffffffff1673ffffffffffffffffffffffffffffffffffffffff163373ffffffffffffffffffffffffffffffffffffffff1614610219576040517f08c379a00000000000000000000000000000000000000000000000000000000081526004016102109061062d565b60405180910390fd5b42600281905550565b61012c600254610232919061067c565b4211610273576040517f08c379a000000000000000000000000000000000000000000000000000000000815260040161026a906106fc565b60405180910390fd5b6000600160003373ffffffffffffffffffffffffffffffffffffffff1673ffffffffffffffffffffffffffffffffffffffff16815260200190815260200160002054116102f5576040517f08c379a00000000000000000000000000000000000000000000000000000000081526004016102ec90610768565b60405180910390fd5b6000600160003373ffffffffffffffffffffffffffffffffffffffff1673ffffffffffffffffffffffffffffffffffffffff1681526020019081526020016000205490503373ffffffffffffffffffffffffffffffffffffffff166108fc829081150290604051600060405180830381858888f1935050505015801561037f573d6000803e3d6000fd5b5050565b60016020528060005260406000206000915090505481565b60025481565b60008054906101000a900473ffffffffffffffffffffffffffffffffffffffff1681565b60008054906101000a900473ffffffffffffffffffffffffffffffffffffffff1673ffffffffffffffffffffffffffffffffffffffff163373ffffffffffffffffffffffffffffffffffffffff1614610453576040517f08c379a000000000000000000000000000000000000000000000000000000000815260040161044a906107fa565b60405180910390fd5b60008054906101000a900473ffffffffffffffffffffffffffffffffffffffff1673ffffffffffffffffffffffffffffffffffffffff166108fc479081150290604051600060405180830381858888f193505050501580156104b9573d6000803e3d6000fd5b50565b6000819050919050565b6104cf816104bc565b82525050565b60006020820190506104ea60008301846104c6565b92915050565b600080fd5b600073ffffffffffffffffffffffffffffffffffffffff82169050919050565b6000610520826104f5565b9050919050565b61053081610515565b811461053b57600080fd5b50565b60008135905061054d81610527565b92915050565b600060208284031215610569576105686104f0565b5b60006105778482850161053e565b91505092915050565b61058981610515565b82525050565b60006020820190506105a46000830184610580565b92915050565b600082825260208201905092915050565b7f6f6e6c792077696c6c2063726561746f722063616e207265736574206578706960008201527f7279000000000000000000000000000000000000000000000000000000000000602082015250565b60006106176022836105aa565b9150610622826105bb565b604082019050919050565b600060208201905081810360008301526106468161060a565b9050919050565b7f4e487b7100000000000000000000000000000000000000000000000000000000600052601160045260246000fd5b6000610687826104bc565b9150610692836104bc565b92508282019050808211156106aa576106a961064d565b5b92915050565b7f596f752063616e6e6f7420636c61696d20746f6b656e73206e6f770000000000600082015250565b60006106e6601b836105aa565b91506106f1826106b0565b602082019050919050565b60006020820190508181036000830152610715816106d9565b9050919050565b7f596f752068617665206e6f20746f6b656e73206c65667420746f20636c61696d600082015250565b60006107526020836105aa565b915061075d8261071c565b602082019050919050565b6000602082019050818103600083015261078181610745565b9050919050565b7f596f7520617265206e697420746865206f776e6572206f66207468697320776960008201527f6c6c000000000000000000000000000000000000000000000000000000000000602082015250565b60006107e46022836105aa565b91506107ef82610788565b604082019050919050565b60006020820190508181036000830152610813816107d7565b905091905056fea2646970667358221220e2f5a78e92fccf7f6cf40a3e6ecd725737be22b14f43a93166fc60f53b4205f264736f6c63430008110033a2646970667358221220da63316ebe191538a2a1b1b378c9db14a3c681d515330df62e0341ffcfdd5b5464736f6c63430008110033",
  "linkReferences": {},
  "deployedLinkReferences": {}
}